:100000000C9436000C9484080C9484080C94840896
:100010000C9484080C9484080C9484080C94840830
:100020000C9484080C9484080C9484080C94840820
:100030000C9484080C9484080C9484080C94840810
:100040000C9484080C9484080C9484080C94840800
:100050000C948408CD03C903C503C103BD03B903D0
:10006000B303AD03006000880011100011241FBE0F
:10007000CFE5D8E0DEBFCDBFE4E6F0E040E017C05A
:10008000B591A59135912591059107FD0CC09591EC
:100090008591EF01F92FE82F05900D92A217B30774
:1000A000D9F7FE0104C01D92A217B307E1F7EB36A2
:1000B000F40731F70E9400060C945E00F894FFCF1D
:1000C0006C6F766520796F7500476F6F64204A6F9B
:1000D0006200546869732069732074657272696282
:1000E0006C65005265616C6C79206C6F7665207967
:1000F0006F750049276D207761746368696E6720AA
:10010000796F750049207769736820796F75206170
:10011000206861707079206C69666500696E76612F
:090120006C6964206461746100E3
:10012A002F923F924F925F926F927F928F929F92FD
:10013A00AF92BF92CF92DF92EF92FF920F931F93EB
:10014A00CF93DF93CDB7DEB7CA57D1090FB6F8946C
:10015A00DEBF0FBECDBF2AE0E0E6F0E0DE01119679
:10016A0001900D922A95E1F72AE0EAE6F0E0DE0135
:10017A001B9601900D922A95E1F72AE0E4E7F0E058
:10018A00DE01559601900D922A95E1F72AE0E4E7FF
:10019A00F0E0DE015F9601900D922A95E1F72AE0E0
:1001AA00EEE7F0E0DE01999601900D922A95E1F7CB
:1001BA002AE04E0133E3830E911CD401E22F1D92F3
:1001CA00EA95E9F75E01FDE3AF0EB11CD501E22F16
:1001DA001D92EA95E9F76E01F7E4CF0ED11CD6011C
:1001EA00E22F1D92EA95E9F7DE01AF5ABF4FFD01F2
:1001FA00322F11923A95E9F7AE01455A5F4FFA014B
:10020A0011922A95E9F7AA968FAFAA97AB969FAF54
:10021A00AB979E012F5F3F4FA7963FAF2EAFA79791
:10022A00AD969FAE8EAEAD973E013BE0630E711C5C
:10023A00EB96BFAEAEAEEB977E01E5E1EE0EF11C9A
:10024A0016018E01015E1F4FE996BFAFAEAFE99767
:10025A00BE01675D7F4FAF965FAF4EAFAF97482E37
:10026A00592E25E030E0E196DFAECEAEE197F201FD
:10027A00C190D1902F01A796EEADFFADA7978191BE
:10028A009191A796FFAFEEAFA797F601E81BF90B7E
:10029A00CF01F401819391934F01F30181919191DF
:1002AA003F01F601E81BF90BCF01F5018193919308
:1002BA005F01F701819191917F01F601E81BF90B2A
:1002CA00CF01E196EEADFFADE19781939193E1966F
:1002DA00FFAFEEAFE197F801819191918F01F6019D
:1002EA00E81BF90BED93FD93FB0181919191BF01FD
:1002FA00C81AD90AFA01C192D192AF012150310923
:10030A0009F0B5CF7E01F1E5EF0EF11CE7961FAEBD
:10031A001EAEE797E5961FAE1EAEE597E3961FAEB3
:10032A001EAEE397C12CD12CE1961FAE1EAEE1970B
:10033A00E996AEACBFACE997EB968EAC9FACEB9767
:10034A00D1010D911D911D01AB96EEADFFADAB979D
:10035A0061917191AB96FFAFEEAFAB97072E000C90
:10036A00880B990B0E94A3062B013C01B801110FBF
:10037A00880B990B0E94A306A30192010E94790897
:10038A0020E030E048EC52E40E947D08A9966CAF68
:10039A007DAF8EAF9FAFA99720E030E040EF51E4E8
:1003AA000E946F088823C4F420E030E040EF51EC4B
:1003BA00A9966CAD7DAD8EAD9FADA9970E947408CC
:1003CA00181654F4E7962EAD3FADE7972F5F3F4FCF
:1003DA00E7963FAF2EAFE797AD96AEADBFADAD97FF
:1003EA006D917D91AD96BFAFAEAFAD97072E000C64
:1003FA00880B990B0E94A306A30192010E94790817
:10040A0020E030E048EC52E40E947D08A9966CAFE7
:10041A007DAF8EAF9FAFA99720E030E040EF51E467
:10042A000E946F088823BCF420E030E040EF51ECD2
:10043A00A9966CAD7DAD8EAD9FADA9970E9474084B
:10044A0018164CF4E596EEADFFADE5973196E596B4
:10045A00FFAFEEAFE597D4016D917D914D01072E67
:10046A00000C880B990B0E94A306A30192010E941B
:10047A00790820E030E048EC52E40E947D08A99611
:10048A006CAF7DAF8EAF9FAFA99720E030E040EF11
:10049A0051E40E946F088823BCF420E030E040EF6A
:1004AA0051ECA9966CAD7DAD8EAD9FADA9970E941A
:1004BA00740818164CF4E196EEADFFADE19731964B
:1004CA00E196FFAFEEAFE197D5016D917D915D01A8
:1004DA00072E000C880B990B0E94A306A301920118
:1004EA000E94790820E030E048EC52E40E947D083E
:1004FA00A9966CAF7DAF8EAF9FAFA99720E030E091
:10050A0040EF51E40E946F088823BCF420E030E0F9
:10051A0040EF51ECA9966CAD7DAD8EAD9FADA9971C
:10052A000E94740818164CF4E396EEADFFADE397FB
:10053A003196E396FFAFEEAFE397AF96AEADBFADA0
:10054A00AF976D917D91AF96BFAFAEAFAF97072EC4
:10055A00000C880B990B0E94A306A30192010E942A
:10056A00790820E030E048EC52E40E947D082B0133
:10057A003C0120E030E040EF51E40E946F088823FC
:10058A006CF420E030E040EF51ECC301B2010E946C
:10059A00740818161CF4BFEFCB1ADB0A2E143F049A
:1005AA0009F0CECEE5E0CE16D104E1F0E1962EAD0B
:1005BA003FADE19725303105C1F0E3968EAD9FAD91
:1005CA00E3970597A9F0E596AEADBFADE597159708
:1005DA0091F0E796EEADFFADE797359779F088E0B1
:1005EA0090E00EC082E090E00BC081E090E008C08D
:1005FA0083E090E005C084E090E002C086E090E0ED
:10060A00C658DF4F0FB6F894DEBF0FBECDBFDF91DD
:10061A00CF911F910F91FF90EF90DF90CF90BF90F5
:10062A00AF909F908F907F906F905F904F903F9088
:04063A002F90089560
:10063E00CF92DF92EF920F931F93CF93DF93CDB7AD
:10064E00DEB7CD56D1090FB6F894DEBF0FBECDBFC3
:10065E009C010F2EF0ECCF2EF0E0DF2EF0E0EF2E0F
:10066E00F02D89E0F601DE0111967E2D0E942B08F9
:10067E000F2EF9ECCF2EF0E0DF2EF0E0EF2EF02D66
:10068E0089E0F601DE011A967E2D0E942B0889E57F
:10069E009FE69C8B8B8B85E790E09E8B8D8B0F2E30
:1006AE00F2EDCF2EF0E0DF2EF0E0EF2EF02D81E117
:1006BE00F601DE0157967E2D0E942B080F2EF3EECB
:1006CE00CF2EF0E0DF2EF0E0EF2EF02D80E1F601E0
:1006DE00DE0198967E2D0E942B080F2EF3EFCF2E63
:1006EE00F0E0DF2EF0E0EF2EF02D81E1F601DE01DD
:1006FE00D8967E2D0E942B080F2EF4E0CF2EF1E01F
:10070E00DF2EF0E0EF2EF02D88E1F601DE01A75B83
:10071E00BF4F7E2D0E942B080F2EFCE1CF2EF1E055
:10072E00DF2EF0E0EF2EF02D8DE0F601DE01AF5959
:10073E00BF4F7E2D0E942B08F9013197E830F1054D
:10074E0008F07FC0E65DFF4F0C946408A2968FAD53
:10075E00A29781116CC075C02A968FAD2A97811110
:10076E005BC06FC088AD81114CC06BC088A5811174
:10077E003DC067C08F8981112EC063C08B898111E6
:10078E001FC05FC08A85811110C05BC0898188231C
:10079E0009F457C08E010E5F1F4F0E947A07F801B1
:1007AE0081918F018111F9CF4CC08E01055F1F4FD2
:1007BE000E947A07F80181918F018111F9CF41C012
:1007CE008E010C5E1F4F0E947A07F80181918F01F6
:1007DE008111F9CF36C08E01085E1F4F0E947A0735
:1007EE00F80181918F018111F9CF2BC08E01075D28
:1007FE001F4F0E947A07F80181918F018111F9CF65
:10080E0020C08E01075C1F4F0E947A07F80181916C
:10081E008F018111F9CF15C08E01065B1F4F0E940B
:10082E007A07F80181918F018111F9CF0AC08E01EB
:10083E000E591F4F0E947A07F80181918F01811185
:10084E00F9CFC359DF4F0FB6F894DEBF0FBECDBF41
:10085E00DF91CF911F910F91EF90DF90CF90089580
:10086E00452BC9F181309105A9F01CF4892B39F083
:10087E00089582309105C9F0039711F108952AB3B6
:10088E0081E090E002C0880F991F6A95E2F7822BF3
:10089E008ABB089527B381E090E002C0880F991FAC
:1008AE006A95E2F7822B87BB089524B381E090E02E
:1008BE0002C0880F991F6A95E2F7822B84BB0895B8
:1008CE0021B381E090E002C0880F991F6A95E2F78C
:1008DE00822B81BB089581309105B1F01CF4892BD8
:1008EE0039F0089582309105D9F0039729F10895D2
:1008FE002AB381E090E002C0880F991F6A95E2F753
:10090E00809582238ABB089527B381E090E002C0D0
:10091E00880F991F6A95E2F78095822387BB089509
:10092E0024B381E090E002C0880F991F6A95E2F728
:10093E008095822384BB089521B381E090E002C0AC
:10094E00880F991F6A95E2F78095822381BB0895DF
:10095E00452BC9F181309105A9F01CF4892B39F092
:10096E00089582309105C9F0039711F108952BB3C4
:10097E0081E090E002C0880F991F6A95E2F7822B02
:10098E008BBB089528B381E090E002C0880F991FB9
:10099E006A95E2F7822B88BB089525B381E090E03B
:1009AE0002C0880F991F6A95E2F7822B85BB0895C6
:1009BE0022B381E090E002C0880F991F6A95E2F79A
:1009CE00822B82BB089581309105B1F01CF4892BE6
:1009DE0039F0089582309105D9F0039729F10895E1
:1009EE002BB381E090E002C0880F991F6A95E2F761
:1009FE00809582238BBB089528B381E090E002C0DE
:100A0E00880F991F6A95E2F78095822388BB089517
:100A1E0025B381E090E002C0880F991F6A95E2F736
:100A2E008095822385BB089522B381E090E002C0B9
:100A3E00880F991F6A95E2F78095822382BB0895ED
:100A4E0010C00E94500858F00E94490840F029F446
:100A5E005F3F29F00C945E0851110C9458080C94C9
:100A6E0081080E94C90768F39923B1F3552391F3C6
:100A7E00951B550BBB27AA2762177307840738F0FF
:100A8E009F5F5F4F220F331F441FAA1FA9F335D05C
:100A9E000E2E3AF0E0E832D091505040E695001C10
:100AAE00CAF72BD0FE2F29D0660F771F881FBB1FCA
:100ABE00261737074807AB07B0E809F0BB0B802DA8
:100ACE00BF01FF2793585F4F3AF09E3F510578F0D4
:100ADE000C945E080C9458085F3FE4F3983ED4F3F0
:100AEE00869577956795B795F7959F5FC9F7880FA8
:100AFE00911D9695879597F90895E1E0660F771FFA
:100B0E00881FBB1F621773078407BA0720F0621B8A
:0E0B1E00730B840BBA0BEE1F88F7E095089559
:100B2C000FC00E94490838F00E94500820F095230D
:100B3C0011F00C945E080C94810811240C94580844
:100B4C000E94C90770F3959FC1F3950F50E0551F94
:100B5C00629FF001729FBB27F00DB11D639FAA2706
:100B6C00F00DB11DAA1F649F6627B00DA11D661F55
:100B7C00829F2227B00DA11D621F739FB00DA11D76
:100B8C00621F839FA00D611D221F749F3327A00D30
:100B9C00611D231F849F600D211D822F762F6A2FCC
:100BAC0011249F5750409AF0F1F088234AF0EE0F31
:100BBC00FF1FBB1F661F771F881F91505040A9F75E
:100BCC009E3F510580F00C945E080C9458085F3FD2
:100BDC00E4F3983ED4F3869577956795B795F7959A
:100BEC00E7959F5FC1F7FE2B880F911D9695879512
:040BFC0097F90895C8
:100C0000CF93DF93CDB7DEB72A970FB6F894DEBF48
:100C10000FBECDBF0E9464062FEF33EC89E0215058
:100C200030408040E1F700C0000000E010E00530F7
:100C30001105A1F4CE0101960E9495000E941F03A8
:100C40009FEFE3EDF0E39150E040F040E1F700C0AA
:100C500000000E94380800E010E0E9CFC8010E94BF
:100C6000DE062FEF33ED80E3215030408040E1F786
:100C700000C000000E9486089FEFE1EEF4E0915072
:100C8000E040F040E1F700C000000E946A087801EF
:100C9000EE0CFF1C21E030E02C0F3D1FE20EF31E96
:100CA000BC01990F880B990B0E94A30620E030E449
:100CB0004CE950E40E947D080E944208F7017183CC
:080CC00060830F5F1F4FB3CFEB
:100CC80084B3806F84BB41E050E061E070E081E074
:100CD80090E00E94370441E050E062E070E081E07B
:100CE80090E00E94370441E050E063E070E081E06A
:100CF80090E00E94370440E050E062E070E081E05C
:100D080090E00E94AF040E94380882E00E941A070F
:100D180088E20E941A078CE00E941A0786E00E9467
:100D28001A070E9438082FEF80E792E02150804090
:0A0D38009040E1F700C000000895AC
:100D4200E89409C097FB3EF4909580957095619563
:100D52007F4F8F4F9F4F9923A9F0F92F96E9BB2719
:100D62009395F695879577956795B795F111F8CF95
:100D7200FAF4BB0F11F460FF1BC06F5F7F4F8F4F00
:100D82009F4F16C0882311F096E911C0772321F0F6
:100D92009EE8872F762F05C0662371F096E8862F8E
:100DA20070E060E02AF09A95660F771F881FDAF7E5
:0A0DB200880F9695879597F908952C
:100DBC0082309105F1F02CF4009749F0019781F005
:100DCC00089583309105F1F0049729F1089547E0D7
:100DDC0050E061E070E080E090E00E94EB07089545
:100DEC0047E050E061E070E081E090E00E94EB07AA
:100DFC00089547E050E061E070E082E090E00E94EE
:100E0C00EB07089547E050E061E070E083E090E08C
:100E1C000E94EB07089547E050E061E070E084E049
:080E2C0090E00E94EB0708951D
:100E3400CF93C82F40E050E061E070E081E090E0A3
:100E44000E94AF0485B38F709C2F907F892B85BB44
:100E54000E9403082FEF30E782E0215030408040A9
:100E6400E1F700C0000085B3282F2F7030E1C39F45
:100E7400C0011124822B85BB0E9403088FEF90E7E9
:100E840022E0815090402040E1F700C00000CF9163
:020E94000895BF
:100E96000E94D10788F09F5798F0B92F9927B7512C
:100EA600B0F0E1F0660F771F881F991F1AF0BA9508
:100EB600C9F714C0B13091F00E945708B1E0089507
:100EC6000C945708672F782F8827B85F39F0B93FF9
:100ED600CCF3869577956795B395D9F73EF49095BB
:0E0EE6008095709561957F4F8F4F9F4F0895B7
:100EF400CF93C82F41E050E061E070E081E090E0E2
:100F04000E94AF0485B38F709C2F907F892B85BB83
:100F14000E9403088FE99FE00197F1F700C00000E9
:100F240085B3282F2F7030E1C39FC0011124822B79
:100F340085BB0E9403088FE99FE00197F1F700C089
:060F44000000CF910895AA
:100F4A00990F0008550FAA0BE0E8FEEF16161706D0
:100F5A00E807F907C0F012161306E407F50798F038
:100F6A00621B730B840B950B39F40A2661F0232B51
:100F7A00242B252B21F408950A2609F4A140A695CD
:080F8A008FEF811D811D089508
:100F920057FD9058440F551F59F05F3F71F0479528
:100FA200880F97FB991F61F09F3F79F0879508950D
:100FB200121613061406551FF2CF4695F1DF08C02C
:100FC200161617061806991FF1CF86957105610549
:040FD20008940895E2
:100FD60017B897B1892B87B987B10024769567959D
:100FE6000794769567950794762F602D682B67B9D9
:100FF60086B1887F86B986B1482B46B9379A089557
:1010060041E050E063E070E081E090E00E94AF04D0
:101016008FE99FE00197F1F700C0000040E050E043
:0E10260063E070E081E090E00E94AF04089566
:10103400092E0394000C11F4882352F0BB0F40F4E2
:10104400BF2B11F460FF04C06F5F7F4F8F4F9F4F22
:021054000895FD
:10105600992777FD05C005900D920197E1F7089550
:0A10660001900D920197E1F7089543
:1010700081E00E941A078FE19EE40197F1F700C01A
:0410800000000895CF
:0E1084000E944B076894B1110C94580808950F
:0E10920000240A94161617061806090608957B
:0E10A00000240A94121613061406050608957D
:0E10AE00E894BB2766277727CB0197F90895B2
:0C10BC0097F99F6780E870E060E00895FD
:0C10C800EE0FFF1F0590F491E02D09943D
:0A10D40084B125B190E0922B08953D
:0A10DE000E94A50708F481E00895C0
:0A10E8000E94A50708F48FEF089599
:0810F2000E9427050C941A0866
:0810FA000E9496050C941A08EF
:061102009FEF80EC089550
:041108000C94000043
:04110C00369A089572
:10111000E711C309E711E711C309C309C309E711BF
:10112000E711C309E711C309E711E711E711C30983
:08113000E711E711E711E711D7
:00000001FF
